const MOAC_ADDRESS = "ae832592b6d697cd6b3d053866bfe5f334e7c667";
const MOAC_TO_ADDRESS = "0x533243557dfdc87ae5bda885e22db00f87499971";
const MOAC_SECRET = "a12c30c0794fbe70f51198b4cb137be4c331b21880e2be58875208b925cda842";
const MOAC_SMART_CONTRACT_ADDRESS = "0x71666bf0db3501a149e33b7fdaa76b8cc1fa9d90";
const SNRC_CONTRACT_ADDRESS = "0x1b9bae18532eeb8cd4316a20678a0c43f28f0ae2"
const JINGTUM_ADDRESS = "jpgWGpfHz8GxqUjz5nb6ej8eZJQtiF6KhH";

const MOCK_NODE = "http://localhost";
const MOCK_NONCE = 12;
const MOCK_GAS = 2000;
const MOCK_GAS_LIMIT = 200000;
const MOCK_GAS_PRICE = "20000000000";
const MOCK_DEPOSIT_VALUE = 0.03;
const MOCK_DEPOSIT_VALUE_STR = "30000000000000000";
const MOCK_TX_SIGN = "0xf8710c808504a817c80083030d409471666bf0db3501a149e33b7fdaa76b8cc1fa9d90876a94d74f43000081aa808081eaa06fd2730f9953c24ef00883fb70d4a0a8b8d7f6e4cc4084e41e122e8c0f3e5226a069713ed63fac62bd82163c069550bfb6d96faa667268269ec8e3c017af14e719"
const MOCK_HASH = "0x06f34e37909f654c89e204dbb63701a7a373970a82d5333fcbdc48ade4868eaf"
const MOCK_ERC20_TX_SIGN = "0xf9014e0c808504a817c80083030d409471666bf0db3501a149e33b7fdaa76b8cc1fa9d9080b8e4cc2c516400000000000000000000000000000000000000000000000000000000000000800000000000000000000000001b9bae18532eeb8cd4316a20678a0c43f28f0ae2000000000000000000000000000000000000000000000000006a94d74f43000006f34e37909f654c89e204dbb63701a7a373970a82d5333fcbdc48ade4868eaf00000000000000000000000000000000000000000000000000000000000000226a706757477066487a38477871556a7a356e6236656a38655a4a51746946364b6848000000000000000000000000000000000000000000000000000000000000808081e9a093f9d6b60240a77257d81d66a851570d7f0ec9878802dacc464a6175f86cb915a0327da33e46a5ec57c5833d7702aa4ab7d6e5c395b3895e936f7f7717c45084ec"
const MOCK_TRANSFER_TX_SIGN = "0xf86a0c808504a817c80083030d40941b9bae18532eeb8cd4316a20678a0c43f28f0ae28081aa808081e9a0a84b7bda6a9f611029abc8d2c094ca46c90eb76f6ea56f51c46009a9efb76434a005d5881a34235796af45c48369a25a779d94c60fd266a3c9f6a2573bd58c31a3"
const MOCK_TX = {
    from: MOAC_ADDRESS,
    nonce: '0xc',
    gasPrice: '0x4a817c800',
    gasLimit: '0x30d40',
    to: MOAC_TO_ADDRESS,
    value: '0x6a94d74f430000',
    data: '0x00',
    chainId: 99
}

module.exports = {
    MOAC_ADDRESS,
    MOAC_TO_ADDRESS,
    MOAC_SECRET,
    MOAC_SMART_CONTRACT_ADDRESS,
    SNRC_CONTRACT_ADDRESS,
    JINGTUM_ADDRESS,
    MOCK_NODE,
    MOCK_NONCE,
    MOCK_GAS,
    MOCK_GAS_LIMIT,
    MOCK_GAS_PRICE,
    MOCK_DEPOSIT_VALUE,
    MOCK_DEPOSIT_VALUE_STR,
    MOCK_TX_SIGN,
    MOCK_HASH,
    MOCK_ERC20_TX_SIGN,
    MOCK_TRANSFER_TX_SIGN,
    MOCK_TX
}